:020000041000EA
:1000000000B5324B212058609868022188439860DF
:10001000D860186158612E4B002199600221596106
:100020000121F02299502B49196001219960352056
:1000300000F044F80222904214D00621196600F024
:1000400034F8196E01211966002018661A6600F04E
:100050002CF8196E196E196E052000F02FF8012189
:100060000842F9D1002199601B49196000215960AB
:100070001A491B48016001219960EB211966A021F2
:10008000196600F012F800219960164914480160C1
:100090000121996001BC002800D000471248134993
:1000A000086003C880F30888084703B5996A0420EC
:1000B0000142FBD001200142F8D103BD02B5186610
:1000C0001866FFF7F2FF186E186E02BD00000240BE
:1000D000000000180000070000035F00212200005C
:1000E000F4000018222000A00001001008ED00E03C
:1000F00000000000000000000000000074B24E7A12
:1001000000200420F7010010C3010010C5010010F9
:10011000C1010010C1010010C1010010C101001097
:10012000C1010010C1010010C1010010C701001081
:10013000C1010010C1010010C9010010CB01001065
:10014000CD010010CD010010CD010010CD01001037
:10015000CD010010CD010010CD010010CD01001027
:10016000CD010010CD010010CD010010CD01001017
:10017000CD010010CD010010CD010010CD01001007
:10018000CD010010CD010010CD010010CD010010F7
:10019000CD010010CD010010CD010010CD010010E7
:1001A000CD010010CD010010CD010010CD010010D7
:1001B000CD010010CD010010CD010010CD010010C7
:1001C00000BE00BE00BE00BE00BE00BEEFF3058054
:1001D000103800BEF2EB8871B0260010CC2600105B
:1001E0003802001090A31AE71E481F49086006C88D
:1001F00081F3088810471D480068002801D019487D
:10020000F3E70DA40ECC002902D000F012F8F9E7B4
:100210001749184A002000E001C19142FCD116495B
:100220008847164988471649884700BEFDE701C937
:1002300001C29A42FBD37047CC260010C0000020B8
:100240004802002054280010000004200000042070
:1002500054280010001004200010042000000000AA
:10026000704700000000000008ED00E0000000D032
:100270004802002070060020AD1F0010B9030010D6
:10028000A51F0010F8B5C04606480749091A8B108B
:10029000C90FC91810B5491003D0044B002B00D06A
:1002A000984710BD480200204802002000000000CE
:1002B000054B10B5002B03D00449054800E000BFF2
:1002C000FFF7E2FF10BDC04600000000340500202B
:1002D0007825001010B501F075FA314A31491368DC
:1002E000C31A8B424DD91060D022120653685B06A8
:1002F00048D52D4B1A68092A4FD001321A600022C6
:100300002A492B4B087819241A5448781A548878AB
:100310001A54C8781A5408791A5448791A548879A2
:100320001A54C8791A54087A1A54487A1A54887A8E
:100330001A54C87A1A54087B1A54487B1A54887B7A
:100340001A54C87B1A54087C1A54487C1A54887C66
:100350001A54C87C1A54087D1A54487D1A54887D52
:100360001A54C87D1A54097E5A54802211495202E7
:100370004B68180010401342FAD1013C0861002C70
:10038000F6D110BD53689B06B9D5074B09221968F1
:100390000029B3D04A1E1A60B1E700221A60AEE706
:1003A0002C050020400D03002005002098010020AE
:1003B000C804002000002050F0B5DE464E464546F9
:1003C0005746E0B5974989B0974801F041FF0621AB
:1003D0000500072000F07AFA01230021072200938C
:1003E000914801F0B7FF80235B020493EB1CEA0104
:1003F0001B0313438D4A0520134005938C4B079331
:100400008C4B069301F0E6FA01F03AFD8A4901F0BF
:100410001CFDEC21890501F015FD061C01F058FDBD
:1004200084B20023002C0DD0200001F029FD011C16
:10043000301C01F004FD8721C90501F01AFD01F00F
:1004400047FDC3B224041B022343774C2A0000213A
:100450002000049304AB01F0D7FF0122236806209B
:1004600013432360D02400F0C7FA40232406A3627C
:1004700000220121062000F043FA052000F0BCFA1A
:1004800020230022A3620121052000F039FA0D206B
:1004900000F0B2FA8023694E9B0135006362A361CC
:1004A000674B684C9B46684B19350393674B9846DE
:1004B000674B02935B461A68039993009B18CA180E
:1004C000CB5C414601270878191139403154414627
:1004D0004878D910394031544146887899103940CC
:1004E00031544146C8785910394031544146097950
:1004F0003B4073544146537848791911394031547F
:1005000041468879D910394031544146C87999100B
:10051000394031544146087A5910394031544146E6
:10052000497A3B40735441469378887A191139408F
:1005300031544146C87AD910394031544146087B7C
:100540009910394031544146487B59103940315453
:100550004146897B3B4073544146D378C87B19118F
:10056000394031544146087CD91039403154414614
:10057000487C9910394031544146887C59103940A3
:1005800031544146C97C3B40735413794246117D36
:100590001A113A4072544246517DDA103A40725470
:1005A0004246917D9A103A4072544246D17D5A108B
:1005B0003A407254424680203100127E3B40B35490
:1005C000194A40020B781F007B427B41214F5B425E
:1005D000BC462340634457680742FCD10131136194
:1005E000A942EFD1D0231B06994680239B019A464E
:1005F0004B465246C8205A6101F046F84B465246D7
:10060000C8209A6101F040F8029F01223B000421BA
:10061000062000F089F93B0001220421052000F0AA
:1006200083F947E7AC25001000002050FFFFFF9F33
:10063000001C0020000006700024F44AC8040020BA
:100640002005002000F6F5F578250010980100201F
:10065000D5020010000A0A0AD0231B061B68974A1D
:100660009900F0B54E46894651585A4253412F22BF
:1006700057464546DE465B4293439846904BE0B56D
:100680009C4683B000270191E044002939D08D4B6E
:100690000F269B464246FB0808339B009C580123CB
:1006A0003D009A460837002C22D0310021402642D6
:1006B00018D05B464A469A582B00EA40203BDB178D
:1006C0001340524613420DD1072208002A409200DF
:1006D00090400200EB087C483C339B001A502800F5
:1006E000019B984724090135002C01D0BD42DCD381
:1006F000202FCFD103B0F0BCBB46B246A946A046DE
:10070000F0BD704B00200F229B46C60833004146C7
:1007100008339B005B5801000830002B00D1B2E089
:1007200017001F40BC461A420FD04C465D460F00D2
:100730002C59203FCC40FF1727400124274204D1E9
:100740006446614F3C36B600F4511E0900D19AE070
:1007500017003740324213D04C1CA4465D464C462D
:100760002C5965460E00EC401F3EF617264001242A
:10077000264205D1EE08544C3C363F01B6003751B5
:100780001E0A00D17FE017003740324213D08C1C84
:10079000A4465D464C462C5965460E00EC401E3E74
:1007A000F61726400124264205D1EE08464C3C3679
:1007B0003F02B60037511E0B65D01700374032425A
:1007C0000DD0CC1CA4465D464C462C5965460E0007
:1007D000EC401D3EF61726400124264257D01E0C41
:1007E00051D014003440A44632420BD04C46354E12
:1007F0000F1D3659FE40B2460E0054461C3EF60F01
:1008000026424BD01E0D3ED014003440A446324246
:100810000BD04C462B4E4F1D3659FE40B2460E00B3
:1008200054461B3EF60F264240D01E0E2BD014001D
:100830003440A446324212D04C46224E8F1D3659C7
:10084000FE40B2460E0054461A3EF60F264206D12E
:100850006446FE083C3627061B4CB60037511B0F7A
:10086000CF1D002B0FD04C465D462E590124FE4073
:100870001939C9173140214205D1F908124E3C31CE
:100880001B0789008B51202800D03EE732E7EE0895
:100890000D4C3C363F03B6003751A0E76446FF08D5
:1008A0003C37BE00084F2404F451ABE76446FE0811
:1008B0003C362705044CB6003751B6E7EC0400205F
:1008C000304101405C05002000400140094A83009E
:1008D0009A1810B514684022544080322240064CC9
:1008E000C000A44663441A60044B9C4660444160C7
:1008F00010BDC04604C0014004D00140004001408A
:10090000074B8000C3181B68C90092000A435A4075
:100910000C231340034A9446604403607047C0466A
:1009200004C0014004D00140F8B545469846D023A4
:100930001B06DE461C689B462B4B57469A46A30077
:100940004E469946E0B5534616004A469B58070066
:100950000D00002B34D04346002B3FD053464A466F
:1009600041469950D0231B061C6863425C412F22EC
:100970000720634293431D4A38409446FA08110009
:10098000800085403C311A486344890092000D5034
:100990009B18002E0ED080229201944663440121C0
:1009A0000D201D6000F0C4F8F0BCBB46B246A9465D
:1009B000A046F8BDC0229201944663441D60F3E74F
:1009C0004346002BD1D0534641460D20995000227A
:1009D000084900F0E9F85B461C68C6E70D200549A8
:1009E00000F0DCF9BAE7C046EC04002030410140D9
:1009F00000400140590600100123D0228340120616
:100A000093629361094A83009A1811684022514009
:100A100080320A400649C0008C4663441A60054B88
:100A20009C460523604443607047C04604C00140B3
:100A300004D00140004001400FB400B5084883B025
:100A400001F0E8FB049B002B07D005A918000191D9
:100A500001F08EFA034801F0DDFB012001F0A0FA5D
:100A6000BC250010CC250010EFF3108072B6034AAD
:100A70001368002BFCD0BFF35F8F70472C0100D0B0
:100A8000BFF35F8F0022024B1A6080F3108870471B
:100A90002C0100D070B5EFF3108C72B60D4D2B68A1
:100AA000002BFCD0BFF35F8F0724CB08C618C05CB7
:100AB00001230C40A3401C000440034207D118430B
:100AC0003070BFF35F8F2C608CF3108870BD100006
:100AD000FFF7B2FF2C0100D0044A1078431CDBB2B0
:100AE000172B00D9102313707047C046B1010020A6
:100AF0000021044B044ABFF35F8F02C39342FAD133
:100B00007047C046000100D0800100D0054B064A66
:100B10001360064A136053609360D360136153619E
:100B2000936170478080808000E400E004E400E08E
:100B30001F2318401E3B8340002905D0C021044AD2
:100B40004900535013607047802201498B50FAE7E7
:100B500000E100E070B50D00EFF3108672B60F4AA9
:100B60001368002BFCD0BFF35F8F0D4B10309B68D8
:100B700084001B590B4A934203D09D4201D000F0E0
:100B8000D1FF074B9B681D51BFF35F8FBFF35F8F92
:100B90000022024B1A6086F3108870BD240100D039
:100BA00000ED00E0CD010010F0B557464E46DE46A0
:100BB0004546E0B585B0060000911700EFF3108BB5
:100BC00072B66A4A1368002BFCD0BFF35F8F002512
:100BD000674B5D579A46002D00DAA9E06B00654C23
:100BE00001935B199B009846A146C1444B4652466F
:100BF0009B7910361370604BB6009B6899590B1B9C
:100C00002F2B33D95D4B994200D0ACE0019B42467B
:100C10009C465B4B6544AD0063535A4B0232A218AD
:100C2000043B9B1A1B05584A5B0D651913436B80E7
:100C3000564B0121AB80FF23AB71009BEF71AB6082
:100C40004B460B4319004C4B9B689951BFF35F8F88
:100C5000BFF35F8F0022454B1A608BF3108805B0FD
:100C6000F0BCBB46B246A946A046F0BD01200A0032
:100C70008243D3798C46BB4231D845461300444960
:100C80001B1B5B415943090D3D4B63533D4B0235E3
:100C90006519043B5B1B1B053B4D5B0D2B43AA46B3
:100CA0004D466B800425AC465546E044131F444432
:100CB0001B1B1B055B0D1D434B46997100999D80C5
:100CC00099604946DF71334B01431360BBE758001D
:100CD000C01880002018C179B9422FD9020006231C
:100CE000D356002BF3DA02932B4B61460393131D6B
:100CF0009A4604235B429C46E14450464B461B1AED
:100D00001B055B0D9C46204B9571984663464046FB
:100D100003439380019B5A199200039BA418A3805C
:100D2000029B1C4AA371009B2260E771A3608AE7C3
:100D300000F0F8FE002553465D574FE79088029378
:100D40004005131D9A46031561469C464046D4440F
:100D5000634604302018181AE0230005400D1B02DA
:100D600018430390C5E700F0DDFE4FE7240100D0F3
:100D70006C060020B401002000ED00E0CD01001061
:100D800000A1FFFFE401002000E0FFFF01BDFFFF25
:100D9000AAAA00000148804701BD0000F0B5DE4668
:100DA00057464E464546E0B50C0083B0EFF3108839
:100DB00072B6634A1368002BFCD0BFF35F8F614BA0
:100DC00061499A68030010339F00D55900938D4202
:100DD00043D0A54254D05D4EAA1B2F2A3DD85C4B70
:100DE0009C461B689A4601231A0099468240534646
:100DF00013401F2201934B46024093409A468022A3
:100E0000634650469850BFF35F8FEFF305839B46D0
:100E1000002B37D0009B5B4501D000F083FE2A00F9
:100E20004B469A439068844208D177E04B005B18A8
:100E30009B00F3189868844236D01A000621515658
:100E40000029F3DA844255D0019B002B27D0C02221
:100E500051463F4B5200995019603A4B9B68DD5107
:100E6000BFF35F8FBFF35F8F0022354B1A6088F3AB
:100E7000108803B0F0BCBB46B246A946A046F0BD00
:100E80000D00EAE72A004B469A4390688442D5D188
:100E900006201056130000280ADA0D0032E08023E5
:100EA00051462B4AD150D8E706201856002822DB9D
:100EB00042001118890074188946A1689960E17987
:100EC000D971062161569971002925DBA488F11A90
:100ED000640524154C440919E0240905490D240230
:100EE0002143998013181B4A9B001178F3189971BC
:100EF0001070A9E713005946002914D1FF319171F0
:100F00001549918013490A789A71144A9B1B5B41D9
:100F10005A43120D0A7097E71149E2E7062010566E
:100F200013000028C4DA0F4A0F49D21A083A5002B7
:100F3000400D014399800D4952080A43DA8083E746
:100F4000240100D000ED00E0CD010010B40100202C
:100F500000E100E06C06002001BDFFFFAAAA00002E
:100F600001BD0000EE01002000F0FFFF00F8FFFFD0
:100F700070B501240443EFF30581EFF3108C72B6D2
:100F8000214A1368002BFCD0BFF35F8F1F4B050075
:100F90001F4AED1A6D416A43120D1E4D8900AE685D
:100FA00052B27658A6421CD00621595691421CD006
:100FB00012215956914222D01E215956914220D0D9
:100FC0002A2159560324914210D0134B19781A70D4
:100FD0008171BFF35F8F00220B4B1A608CF3108876
:100FE00070BDAB680D4C5C50EFE70024610009193F
:100FF00089005B18FF21997109499980E5E701246F
:10100000F4E70224F2E7C046240100D0B401002036
:10101000AAAA000000ED00E06C060020CD0100103F
:1010200001BDFFFF024B9C4661448900016070478F
:101030004000003470B5114C114DAC420FD2FF2668
:101040002368002B0CD0FFF747FD01002000FFF7BD
:10105000E9FFA680BFF35F8F0834AC42F0D370BDC8
:10106000FFF73AFD01002000FFF7DCFF2671BFF318
:101070005F8F0834AC42E3D3F1E7C0464002002062
:10108000480200200A4B1968EFF3108072B60A6814
:10109000002AFCD0BFF35F8F1B68BFF35F8F002275
:1010A0001A6080F3108840BF002000217047C046BE
:1010B00068060020F0B5DE4657464E464546E0B588
:1010C00083B0EFF3058203231340B54A99005258C9
:1010D0000091904601229A40B24B93461A60B24B5F
:1010E00001932EE043469B881BB2002B00DB99E066
:1010F00043469B79002B00D0DDE0434608241C5F6B
:10110000002C00DA06E143465A6963001B19DB0034
:10111000D3189D68DC686B1C00D107E1A34B0099D4
:101120009C4661449A6A0B69A81A9B1A984200D29D
:101130000D619E4800F03EFB8C4200DDEAE000D1EC
:1011400026E15B4699484363434608229B5E9946E5
:10115000002BC7DB424652695B0092464B44DB00E2
:101160009A4453469E68DF6800F024FB8F42B9DC46
:1011700000D100E1002F00DAE1E052465346546905
:101180001B69019A934200D1D4E04146524608209F
:10119000085E5288000421001043984704000D00A7
:1011A00023002B4300D1CAE0002D00DBE7E0300034
:1011B0003900001BA94153469860D96000229A5E0D
:1011C000002A8FDB43465D6953009C18E4002C190C
:1011D000A768E4688C4200DD84E702D1874200D929
:1011E00080E74646328108360DE08C4200D1D3E0DC
:1011F0001E000023F25E002A0ADB53009C18E40064
:101200002C19A768E4689B18DB00EB188C42ECDD16
:1012100053461A804B46338043469B881BB2002BB3
:1012200000DA65E743461A69EFF3108172B6136876
:10123000002BFCD0BFF35F8F43469E8801234246BC
:101240005B42938036B21369BFF35F8F00221A604E
:1012500081F31088002E00DA4AE743465D690833BF
:1012600042469C467700BF19FF00EF19BB686046F5
:1012700098460823D15E9246FC68002907DA0EE002
:10128000A2424FD018000023C15E002906DB4B00AC
:101290005B18DB00EB18DA68A242F1DD52460680EB
:1012A0000023FE5E3980002EDCDA904643469B79AF
:1012B000002B00D121E70023424693714346464666
:1012C0000821595E08364B1C24D04746894655698B
:1012D00002E006004B1C18D04B005B18DB00E8183E
:1012E0000A008C46E95E43881BB2002BF1DA012329
:1012F0005B42DC178360C4604A4503D031803B8980
:1013000003803A81E1464B1CE6D14C46B846002C9E
:1013100000DBF8E640BF03B0F0BCBB46B246A946CE
:10132000A046F0BD9A684245ACD9B7E7631C00D02F
:10133000F4E6FEE6200023699847002825D15346AD
:1013400042461B8813811269EFF3108372B611684D
:101350000029FCD0BFF35F8F4246514652880A8075
:101360004246494651801269BFF35F8F00211160E8
:1013700083F31088B6E6864200D8FBE6B2E60B4857
:1013800000F018FA0019694115E76568246807E755
:10139000854200D8D5E6BDE7874200D828E737E781
:1013A0004C0500203C700540B51000100040054081
:1013B00070B52E4C2569002D04D00A212C48FFF76A
:1013C00031FE70BD2B4E0321300000F0E9F9E660DC
:1013D000FFF782FB284B03229C46D02322701B067A
:1013E0001B6801216370254B6044A3600F238000BC
:1013F00020610220638063694942A1801980023123
:10140000198647311D83585218315A5275325C394A
:1014100099521832013199521832013199521832C9
:1014200001319952083518329D52023118329952C1
:101430001832013199521832013199521832013162
:1014400099521832013199521832013199520C4B8C
:101450000C49DC6001303562FFF77CFB0121032081
:10146000FFF766FB084B1D60A7E7C046FC010020A4
:10147000680600200040054040000034FFFF1000D7
:101480004C050020B51000103860054070B5010013
:101490000469EFF3108C72B620680028FCD0BFF30B
:1014A0005F8F02200D5E4C6968004019C00024184F
:1014B000002D37DB208848800869BFF35F8F002646
:1014C00006608CF31088E360638804980133206120
:1014D0005B0405985B0CA26060611A1C002B1FD096
:1014E00093B22804628018430A69EFF3108C72B635
:1014F0001368002BFCD0BFF35F8F8B8823808D8017
:101500000B69BFF35F8F00221A608CF310880B7891
:1015100001329A40CB6808498C4663441A6070BD1A
:101520000122DDE70B69BFF35F8F00221A608CF3A5
:10153000108801204042F2E73C20000010B54389AA
:101540000A1493421ADD53009B184269DB00D3183A
:101550000469EFF3108C72B62268002AFCD0BFF346
:101560005F8F5A88090494B2090C8A4208D0036933
:10157000BFF35F8F00221A608CF31088002010BD2B
:101580008022120214435C80012302698371BFF33D
:101590005F8F002111608CF31088044902788C461B
:1015A0009340C268012062441360E8E73C200000D9
:1015B000F0B504000D0006267642F717C646361928
:1015C0006F4100B582B08F4214D811D000F0FAF804
:1015D00032003B00121A8B41002B17DC002B47D046
:1015E0002000290000F0F8F802B080BCB846F0BD39
:1015F0008642EBD90022002316001F0000F0E2F81B
:1016000032003B00121A8B41002BE7DD00F0DAF8C4
:1016100032003B00121A8B41002B0ADB002301939E
:10162000154B3200009315483B00FFF72FFF0028B1
:10163000D6DB00239C46B046114A124E736A9F4285
:1016400004D8B16A8845CBD99F42C9D11168EFF35C
:10165000108072B60B68002BFCD0BFF35F8F13684D
:10166000BFF35F8F6146196080F3108820BFE5E704
:10167000002AB5D0CAE7C04685100010FC01002042
:10168000680600200040054070B5060000F09AF89A
:10169000FA2204000D00002330000021920000F027
:1016A000B1FB8023001969411B06994202D3012036
:1016B00002494042FFF77CFF70BDC046FFFFFF7F3D
:1016C000F0B5CE46474680B504000D0083B0EFF379
:1016D00005878846002F3ED12E4EA1463378F0680C
:1016E00004339B00816A1B58601A5B1A98420ED320
:1016F00020BF294900204B6AAB4203D38A6A0130DC
:10170000944231D803B0C0BCB946B046F0BD00F039
:1017100059F822002B00121A8B41002B2FDB1F4B94
:101720002200009330002B000197FFF7AFFE011E4F
:1017300025DD194B5A6AAA421BD220BF3000FFF7A1
:10174000FDFE154A0020536A4345DBD3926A0130FF
:101750009145D7D908E0104900204B6AAB42D1D35C
:101760008A6A0130A242CDD25B1B5A1E9341D8B285
:10177000C8E79B6A9C42E1D9AA42DFD1DDE7064A6D
:101780000020536A4345BDD3926A01209145B9D9DF
:10179000EAE7C046FC01002000400540851000102B
:1017A00010B5024A0248FFF775F910BDD0250010A8
:1017B000F40400200300416A0A00986A596A8A42C8
:1017C000FAD17047034B596A0A00986A596A9142E4
:1017D000FAD1704700400540064A536A9942FCD846
:1017E00007D1044B02E05A6A914202D19A6A8242BE
:1017F000F9D3704700400540F8B5DE464E465746DF
:101800004546E0B58B4605000A991800160000F021
:1018100067FA0A9B6C001F02324B64199C46A400B5
:101820006444636881469F4200D967602B1FDBB226
:101830009846012B30D9C02380229B01E318120166
:101840001A60294BAD0059599A4600291BD17301E2
:10185000E026226853401E40802342465B01E31885
:101860001E60012A30D9802380229B01E3181201D7
:101870001A6053464A4667605A51F0BCBB46B246AE
:10188000A946A046F8BD586900F02AFA0130430085
:101890001B18033BFDD2DAE75B46012BCBD1C023FB
:1018A00003229B01E3181A60023AA3681A42FCD093
:1018B0007301E0262268AD0053401E4080230A4A8F
:1018C0005B019246E3181E605A462168514003228C
:1018D0000A401A6001225B469A40A3681A42FCD073
:1018E000C1E7C04600800040F8040020F0B546463D
:1018F0004F46D646C0B51F00344B44009C462418C2
:10190000A4006444636888461600FF2B02D8802335
:101910005B006360031FDBB29A46012B30D9C02302
:1019200080229B01E31812011A60294B8500595946
:10193000994600291BD17301E026226853401E40BE
:10194000802352465B01E3181E60012A30D98023B0
:1019500080229B01E31812011A6080235B00636000
:101960004B465F51E0BCBA46B146A846F0BD586947
:1019700000F0B6F9013043001B18033BFDD2DAE753
:101980004346012BCBD1C02303229B01E3181A60ED
:10199000023AA3681A42FCD07301E026226885004F
:1019A00053401E4080230A4A5B019146E3181E60A3
:1019B00042462168514003220A401A6001234246F0
:1019C0009340A2681342FCD0C1E7C04600800040AB
:1019D000F8040020014B8000C0587047F804002034
:1019E000F8B5040021481E0017000D0000F078F93A
:1019F0000100380000F074F9069B36041B031E43F7
:101A00002368002B20DB1A4B1A49E3185A1E934116
:101A10008022920194465B421B0B174A1B036344CE
:101A20001360164A13601F000A689743FBD1144BDA
:101A30002560E2182123A06013602368002BFCDAE4
:101A40000823E6601360F8BD3F2322681340AB42D1
:101A5000D9D1A3681B051B0D8342D4D1EE22E368C4
:101A6000D2021340B342CED1EDE7C046001BB7000F
:101A70000040FDBF08C0004000E0004000F0004012
:101A8000043000008023024A9B000B43D36270475E
:101A900000800540142310B50100188804331B880A
:101AA000984710BD162310B50100188802331B8813
:101AB000984710BDF8B54746CE4680B50F1E19D0E1
:101AC00014239946043304000025012698464B460A
:101AD0001888434621681B88984701C4431E9841D3
:101AE000013540420640AF42F1D13000C0BCB9469A
:101AF000B046F8BD0126F8E7AA23064A1B01136089
:101B00002F230549D360054B19605368002BFCDA7D
:101B10007047C0460040024000B0FA00006002403A
:101B20007047C04610B50148FEF786FFF425001047
:101B300070B5074D074EB54209D20024013E761B11
:101B4000B60808CD984723000134B342F9D170BDDF
:101B50003825001074250010054B064A06491A6006
:101B6000064A074B1A6010000B689843FBD1704778
:101B700000E00040BFCDFBFE08C00040FE7F3C00FF
:101B800000F00040044BDB6C002B03D18022034BA0
:101B9000D2021A607047C046000011504C2011500C
:101BA000044A054B1A60054A1368DB018033FBD1F8
:101BB0007047C046FFFFFF0100F0004008C0004032
:101BC0004022034B9A675A671A67DA667047C04625
:101BD00000F0014010B5FEF78BFF10BD70B5044D4D
:101BE000044CA968C022200000F0B4F9AC6070BDBC
:101BF00000ED00E000000020002310B5294C82B069
:101C0000A367FFF779FF0122274B1A60636C012B52
:101C1000FCD10322254B1A60224A936B012BFCD185
:101C2000013300930121224A22480433FFF7D8FEF2
:101C3000052301210093204A2048FFF7D1FE00220E
:101C4000022104201E4BFFF751FE00220121052036
:101C50001C4BFFF74BFE0022002107201A4BFFF719
:101C600045FE002200210820174BFFF73FFE80238E
:101C7000DB000093002200210920134BFFF7BCFD7D
:101C80000022104B00210620FFF730FE0420FFF752
:101C9000A1FE0E4900F024F801000020FFF7F2FE3B
:101CA00002B010BD008000403CB0004030B00040A9
:101CB000002F685900800240008C864700C0024017
:101CC000001BB70040597307006CDC0240420F0054
:101CD00001480421014B184720020020B51A0010CA
:101CE000114A936F9B0813D210665166002905D0E4
:101CF000FFE7FFE7FFE7516F106F704704B500285B
:101D000001D00020C04300F007FC002104BDC04604
:101D1000F0B5146E556E576F166FFFF7E5FF14663A
:101D2000556657671667F0BD000000D010B5014832
:101D3000FEF782FE00260010132370B51D78012DDA
:101D400019D014DD1D48FFF7ADFE06001C48FFF753
:101D5000A9FE1C4C80223100200000F0FBF8022D6F
:101D600006D01948FFF796FE184B186070BD154C49
:101D7000174BA364F5E7174B124C23606360A36015
:101D8000E36023616361A361E36123626362A36231
:101D9000E36223636363A363E36323646364A36411
:101DA000E36423656365A365E36523666366A366F1
:101DB000E36623676367A367E367D9E753440000DB
:101DC00053460000C80300204C3300006405002087
:101DD000D91D00102D1D001007B5604601880A0AA4
:101DE0000230DF2AFAD1C9B2820804D302884088BF
:101DF0000004104300E00068014A5050039007BD02
:101E0000C803002051434343C9188C46110C83B2C8
:101E10004B4310B4040C614392B280B2504362430E
:101E20001C041B0C001910BC59411304120CC018DF
:101E300051416144704700004840414048400E4BCA
:101E40005B6818470C4B1B6818470C4A936F9B083C
:101E500002D2094BDB681847F0B5146E556E576F08
:101E6000166FFFF7F6FF054A146655665767166743
:101E7000F0BD014B9B68184768050020000000D0AA
:101E8000491A002808D1084670470000C10FC90749
:101E900000D54042002817D0F44603B40B4B1B6812
:101EA000984706BC81409E384042803107D20B06DD
:101EB00007D04900490AC005104308436047013074
:101EC000F8E7490A8902F5E7704700006405002039
:101ED000014B5B6A184700006805002010B50148F7
:101EE000FEF7AAFD18260010132310B510481C7821
:101EF000FFF7D8FD0100012C0AD003DD80220D4838
:101F000000F028F80C48FFF7C5FD0C4B186010BD19
:101F1000084C5422200000F01DF8220008498032AD
:101F20002368002B00D1216004349442F8D1E9E702
:101F300053460000680500204C3300006405002073
:101F4000DD1E001001480421014B1847300200201B
:101F5000B51A0010014B5B681847000030020020E2
:101F600010B5002800D110BD00F008F9FBE7C0460D
:101F700010B5094A0300146884B0002C08D001226F
:101F800000910648524203A9A047012004B010BDA9
:101F900000F040F90020F9E730050020611F001033
:101FA00000BEFDE710B5FFF7FBFFC04670B5FFF7B9
:101FB000BFFD074D074EB54209D20024013E761BF6
:101FC000B60808CD984723000134B342F9D170BD5B
:101FD0007425001078250010030010B508001100CA
:101FE0001B68984710BDC046F0B5C64600B5437D96
:101FF00007000D001600002B38D0002A2EDD00212E
:102000006A1E90466A5C037D4C1C00200A2A0CD094
:10201000A64216D043461B5D21000D3B5A42534158
:102020006A5CDBB24C1C0A2AF2D1002BF0D1884248
:1020300017DB022110483B689847A64207D02000D2
:10204000E8E7864203DD311A3B6828189847AD1946
:10205000013D2B780D3B5A4253413B7580BCB8463D
:10206000F0BD091A3B6828189847E2E70368110099
:1020700028009847F2E7C046AC260010F0B5DE46CF
:1020800057464E464546E0B585B017001C00060091
:102090000D00FFF797FB0023314A12184B418021B6
:1020A00009068B4202D301222E4B52422E490800D0
:1020B0008A4600F039FA01906B1C03D1300000F021
:1020C000F1F90500002C26D0284B9846284B1C68B7
:1020D000002C15D0002F21D1264F02E02469002CBE
:1020E0000ED02368002BF9D03B68002B01D09C4216
:1020F000F4D120002A003100C0472469002CF0D11F
:10210000019B002B28D1280005B0F0BCBB46B2468D
:10211000A946A046F0BD184B9846D7E7154B9946FF
:1021200002ABDF1D0A239B4602E02469002CE7D0A6
:102130002368002BF9D04B461B68002B01D0A3422B
:10214000F3D12A0031002000C0475B46012239004C
:1021500020003B70C047E8E7504600F0D5F9D2E7D1
:1021600040420F00FFFFFF7F40020020E91F0010E8
:102170002405002028050020D91F0010F0B5CE4608
:10218000474680B583B06B460600DD1D2870FFF71B
:1021900019FB00231A4A12184B41802109068B4271
:1021A00002D30122174B524217490800884600F01B
:1021B000BBF9164B81461C68002C14D0144F02E06A
:1021C0002469002C0FD02368002BF9D03B68002B2A
:1021D00001D09C42F4D1200001222900FFF704FF26
:1021E0002469002CEFD14B46002B05D1300003B001
:1021F000C0BCB946B046F0BD404600F085F9F5E7F1
:1022000040420F00FFFFFF7F400200202405002016
:102210002805002070B5040000F044F901230100F6
:10222000050001222000FFF729FF084B1C68002C45
:1022300006D06368002B05D098472469002CF8D19C
:10224000280070BD2469002CF3D1F9E72405002093
:10225000F0B55746DE464E4645468846E0B583B063
:1022600006000524FEF700FC434684461C571879F7
:10227000364B374AF3181B0D9B009246D758012264
:102280008240013A002C42DB2021091A8C423BDCBF
:102290001100A14025000F4236D141460968894608
:1022A0004146897900294DD1AA4093463A423FD10F
:1022B0008021890100228846002816D06146A44664
:1022C00034004E469946030001915100705A404532
:1022D00000D240195119123189000132085193423C
:1022E000F3D8019B64469C464B465A4617435246D8
:1022F000D7506046FEF7C4FB200003B0F0BCBB46DD
:10230000B246A946A046F0BD01246442F1E720246C
:10231000241A0DD41100A14025008B46394205D165
:1023200009E01100A14025000F42B6D0013CF8D2CF
:1023300009246442DDE7424612689146424692799A
:10234000002AB5D014246442D3E7C0460000E0AFB1
:10235000E4040020F0B54E464546DE465746E0B55B
:1023600083B089460CA984460D781F2A45D8494672
:10237000490088464944C900461837003400DC3714
:102380003868CC3483462068310001901C48802492
:102390008246A40251440C6069424D411E216D42A7
:1023A0008D4318498A465544052B0CD9A0201F217E
:1023B0004005D836540104430532053B3C600A40D1
:1023C0003560052BF6D852019B06134342464A441A
:1023D000D20062441000DC3213600300D8331D6069
:1023E0005B461360019BCC300360002003B0F0BC5F
:1023F000BB46B246A946A046F0BD05204042F5E7DF
:10240000CC3000009FE00000F0B501258D4004684D
:10241000AC430460002B2ED04D006C18E40004196E
:1024200026001F68C83637609F68043677605F688B
:10243000DB68DC34376023606B18184DDB00AC467A
:102440008025C41864442D0625602560144C0D1D9C
:102450008C40846001242600AE40802508318C40E9
:102460001F21AD014519C0180A40D8302E602C60DC
:1024700002600020F0BD4D006C18E4000419260035
:102480008027C8367F023760C0273F03B760F82730
:1024900004367F02DC3437602360CDE7D0100000C3
:1024A0000101010110B583070AD00300032102E0F6
:1024B00001330B4205D01A78002AF9D1181A10BD41
:1024C000030019680C4A0D4C8A188A4322420FD126
:1024D0005968094A04338A188A43224208D1596844
:1024E000054A04338A188A432242F1D000E00133BE
:1024F0001A78002AFBD1E1E7FFFEFEFE8080808093
:10250000F8B5C0460000000001B40248844601BC92
:10251000604700BF5D01002001B40248844601BC51
:10252000604700BF8501002001B40248844601BC19
:10253000604700BFC1000020591B0010851B001020
:10254000D11C0010451F0010391D0010E91E00109D
:10255000F91B0010A11B0010C11B0010D51B00109F
:1025600035100010DD1B0010B1130010211B0010EE
:082570000D0B0010B102001078
:102578001F1111111F040C04040E0E1204081F1F52
:102588000107011F11111F01011F101F011F1F103B
:102598001F111F1F010101011F111F111F1F111FF3
:1025A80001010000B425001004FF0000216323127C
:1025B800001242A20A2A2A2A2050414E4943202AC0
:1025C8002A2A0A000A00000048617264776172656D
:1025D80020616C61726D20256420616C7265616494
:1025E8007920636C61696D656400000048617264FC
:1025F80020617373657274006D697373696E672007
:10260800646F75626C652066756E6374696F6E00C1
:102618000000000052656C6561736500626F6F743D
:10262800325F77323571303830000000322E312E6B
:10263800300000007069636F5F770000777332388D
:1026480031320000466562202032203230323500B7
:1026580006005250D3F075421C2600100600525056
:10266800E182887F2426001006005250ABB36053E5
:102678003426001006005250BBFF3CB63C26001022
:1026880006005250861C03024426001006005250D1
:102698005422A29D4C26001005005250DE65F468B5
:0826A800542800100D0A000087
:1026B0005826001064260010702600107C2600109A
:0C26C0008826001094260010A0260010B0
:1026CC00F0B5C646150000B504001E000268EFF315
:1026DC00108172B61368002BFCD0BFF35F8F0423FC
:1026EC00E356002B2DDB2268BFF35F8F00201060B8
:1026FC0081F31088D0221206127852B290469A4278
:10270C0003D1002080BCB846F0BD00270BE0236845
:10271C00BFF35F8F1F6081F310882800310000F039
:10272C0033F80028EDD12268EFF3108172B61368EC
:10273C00002BFCD0BFF35F8F23797F2BE7D9434667
:10274C0002E0D0231B061B6823712368BFF35F8F45
:10275C0000221A6081F310880120D3E70268EFF39E
:10276C00108172B61368002BFCD0BFF35F8FFF2370
:10277C0003710368BFF35F8F00221A6081F3108826
:10278C0040BF70477047C04601B40248844601BC44
:10279C00604700BFC116001018171615140F101142
:1027AC0012130E0D0C0B0A0506070809040302018F
:1027BC0000100000000000000000010000000000FC
:1027CC0000000000000002000000000000000000FB
:1027DC000000030000000000000000000000FF00EB
:1027EC000000000001B5486801318E460047704674
:1027FC0009380149884701BD710F00100000000025
:10280C0000000000000000000000000000000000BC
:10281C004802002000000000000000000000000042
:10282C00503300004C33000054330000523300008E
:10283C004D5300004D43000053340000433400005E
:08284C00000000000000000084
:04000005100001E9FD
:00000001FF
